{
  "_format": "hh-sol-artifact-1",
  "contractName": "Attendance",
  "sourceName": "contracts/Attendance.sol",
  "abi": [
    {
      "anonymous": false,
      "inputs": [
        {
          "indexed": false,
          "internalType": "string",
          "name": "studentName",
          "type": "string"
        },
        {
          "indexed": false,
          "internalType": "uint256",
          "name": "timestamp",
          "type": "uint256"
        }
      ],
      "name": "AttendanceMarked",
      "type": "event"
    },
    {
      "anonymous": false,
      "inputs": [
        {
          "indexed": false,
          "internalType": "string",
          "name": "name",
          "type": "string"
        },
        {
          "indexed": false,
          "internalType": "address",
          "name": "walletAddress",
          "type": "address"
        }
      ],
      "name": "StudentRegistered",
      "type": "event"
    },
    {
      "inputs": [
        {
          "internalType": "uint256",
          "name": "",
          "type": "uint256"
        }
      ],
      "name": "attendanceRecords",
      "outputs": [
        {
          "internalType": "string",
          "name": "studentName",
          "type": "string"
        },
        {
          "internalType": "uint256",
          "name": "timestamp",
          "type": "uint256"
        }
      ],
      "stateMutability": "view",
      "type": "function"
    },
    {
      "inputs": [],
      "name": "getAttendanceRecords",
      "outputs": [
        {
          "components": [
            {
              "internalType": "string",
              "name": "studentName",
              "type": "string"
            },
            {
              "internalType": "uint256",
              "name": "timestamp",
              "type": "uint256"
            }
          ],
          "internalType": "struct Attendance.AttendanceRecord[]",
          "name": "",
          "type": "tuple[]"
        }
      ],
      "stateMutability": "view",
      "type": "function"
    },
    {
      "inputs": [],
      "name": "markAttendance",
      "outputs": [],
      "stateMutability": "nonpayable",
      "type": "function"
    },
    {
      "inputs": [
        {
          "internalType": "string",
          "name": "name",
          "type": "string"
        }
      ],
      "name": "registerStudent",
      "outputs": [],
      "stateMutability": "nonpayable",
      "type": "function"
    },
    {
      "inputs": [
        {
          "internalType": "address",
          "name": "",
          "type": "address"
        }
      ],
      "name": "students",
      "outputs": [
        {
          "internalType": "string",
          "name": "name",
          "type": "string"
        },
        {
          "internalType": "address",
          "name": "walletAddress",
          "type": "address"
        },
        {
          "internalType": "bool",
          "name": "registered",
          "type": "bool"
        }
      ],
      "stateMutability": "view",
      "type": "function"
    }
  ],
  "bytecode": "0x6080604052348015600f57600080fd5b5061118b8061001f6000396000f3fe608060405234801561001057600080fd5b50600436106100575760003560e01c80631cbe0b601461005c5780633dc938c11461007a5780635763c1841461008457806371e17445146100b5578063a6c807a9146100d1575b600080fd5b610064610103565b6040516100719190610932565b60405180910390f35b6100826101fe565b005b61009e60048036038101906100999190610994565b610432565b6040516100ac929190610a1a565b60405180910390f35b6100cf60048036038101906100ca9190610b7f565b6104ee565b005b6100eb60048036038101906100e69190610c26565b6106ab565b6040516100fa93929190610c7d565b60405180910390f35b60606001805480602002602001604051908101604052809291908181526020016000905b828210156101f5578382906000526020600020906002020160405180604001604052908160008201805461015a90610cea565b80601f016020809104026020016040519081016040528092919081815260200182805461018690610cea565b80156101d35780601f106101a8576101008083540402835291602001916101d3565b820191906000526020600020905b8154815290600101906020018083116101b657829003601f168201915b5050505050815260200160018201548152505081526020019060010190610127565b50505050905090565b6000803373ffffffffffffffffffffffffffffffffffffffff1673ffffffffffffffffffffffffffffffffffffffff16815260200190815260200160002060010160149054906101000a900460ff1661028c576040517f08c379a000000000000000000000000000000000000000000000000000000000815260040161028390610d67565b60405180910390fd5b600160405180604001604052806000803373ffffffffffffffffffffffffffffffffffffffff1673ffffffffffffffffffffffffffffffffffffffff16815260200190815260200160002060000180546102e590610cea565b80601f016020809104026020016040519081016040528092919081815260200182805461031190610cea565b801561035e5780601f106103335761010080835404028352916020019161035e565b820191906000526020600020905b81548152906001019060200180831161034157829003601f168201915b5050505050815260200142815250908060018154018082558091505060019003906000526020600020906002020160009091909190915060008201518160000190816103aa9190610f33565b506020820151816001015550507f01044d9fb672e2eec673dbc23e4059f71091634e6499c840a5ff72bc9b8cd9716000803373ffffffffffffffffffffffffffffffffffffffff1673ffffffffffffffffffffffffffffffffffffffff16815260200190815260200160002060000142604051610428929190611089565b60405180910390a1565b6001818154811061044257600080fd5b906000526020600020906002020160009150905080600001805461046590610cea565b80601f016020809104026020016040519081016040528092919081815260200182805461049190610cea565b80156104de5780601f106104b3576101008083540402835291602001916104de565b820191906000526020600020905b8154815290600101906020018083116104c157829003601f168201915b5050505050908060010154905082565b6000803373ffffffffffffffffffffffffffffffffffffffff1673ffffffffffffffffffffffffffffffffffffffff16815260200190815260200160002060010160149054906101000a900460ff161561057d576040517f08c379a000000000000000000000000000000000000000000000000000000000815260040161057490611105565b60405180910390fd5b60405180606001604052808281526020013373ffffffffffffffffffffffffffffffffffffffff168152602001600115158152506000803373ffffffffffffffffffffffffffffffffffffffff1673ffffffffffffffffffffffffffffffffffffffff16815260200190815260200160002060008201518160000190816106049190610f33565b5060208201518160010160006101000a81548173ffffffffffffffffffffffffffffffffffffffff021916908373ffffffffffffffffffffffffffffffffffffffff16021790555060408201518160010160146101000a81548160ff0219169083151502179055509050507faa541cc9975b48a66ff0fcced1b6a07701b89f4bf70332c0e06f406f61b8e97981336040516106a0929190611125565b60405180910390a150565b60006020528060005260406000206000915090508060000180546106ce90610cea565b80601f01602080910402602001604051908101604052809291908181526020018280546106fa90610cea565b80156107475780601f1061071c57610100808354040283529160200191610747565b820191906000526020600020905b81548152906001019060200180831161072a57829003601f168201915b5050505050908060010160009054906101000a900473ffffffffffffffffffffffffffffffffffffffff16908060010160149054906101000a900460ff16905083565b600081519050919050565b600082825260208201905092915050565b6000819050602082019050919050565b600081519050919050565b600082825260208201905092915050565b60005b838110156107f05780820151818401526020810190506107d5565b60008484015250505050565b6000601f19601f8301169050919050565b6000610818826107b6565b61082281856107c1565b93506108328185602086016107d2565b61083b816107fc565b840191505092915050565b6000819050919050565b61085981610846565b82525050565b6000604083016000830151848203600086015261087c828261080d565b91505060208301516108916020860182610850565b508091505092915050565b60006108a8838361085f565b905092915050565b6000602082019050919050565b60006108c88261078a565b6108d28185610795565b9350836020820285016108e4856107a6565b8060005b858110156109205784840389528151610901858261089c565b945061090c836108b0565b925060208a019950506001810190506108e8565b50829750879550505050505092915050565b6000602082019050818103600083015261094c81846108bd565b905092915050565b6000604051905090565b600080fd5b600080fd5b61097181610846565b811461097c57600080fd5b50565b60008135905061098e81610968565b92915050565b6000602082840312156109aa576109a961095e565b5b60006109b88482850161097f565b91505092915050565b600082825260208201905092915050565b60006109dd826107b6565b6109e781856109c1565b93506109f78185602086016107d2565b610a00816107fc565b840191505092915050565b610a1481610846565b82525050565b60006040820190508181036000830152610a3481856109d2565b9050610a436020830184610a0b565b9392505050565b600080fd5b600080fd5b7f4e487b7100000000000000000000000000000000000000000000000000000000600052604160045260246000fd5b610a8c826107fc565b810181811067ffffffffffffffff82111715610aab57610aaa610a54565b5b80604052505050565b6000610abe610954565b9050610aca8282610a83565b919050565b600067ffffffffffffffff821115610aea57610ae9610a54565b5b610af3826107fc565b9050602081019050919050565b82818337600083830152505050565b6000610b22610b1d84610acf565b610ab4565b905082815260208101848484011115610b3e57610b3d610a4f565b5b610b49848285610b00565b509392505050565b600082601f830112610b6657610b65610a4a565b5b8135610b76848260208601610b0f565b91505092915050565b600060208284031215610b9557610b9461095e565b5b600082013567ffffffffffffffff811115610bb357610bb2610963565b5b610bbf84828501610b51565b91505092915050565b600073ffffffffffffffffffffffffffffffffffffffff82169050919050565b6000610bf382610bc8565b9050919050565b610c0381610be8565b8114610c0e57600080fd5b50565b600081359050610c2081610bfa565b92915050565b600060208284031215610c3c57610c3b61095e565b5b6000610c4a84828501610c11565b91505092915050565b610c5c81610be8565b82525050565b60008115159050919050565b610c7781610c62565b82525050565b60006060820190508181036000830152610c9781866109d2565b9050610ca66020830185610c53565b610cb36040830184610c6e565b949350505050565b7f4e487b7100000000000000000000000000000000000000000000000000000000600052602260045260246000fd5b60006002820490506001821680610d0257607f821691505b602082108103610d1557610d14610cbb565b5b50919050565b7f53747564656e74206e6f74207265676973746572656400000000000000000000600082015250565b6000610d516016836109c1565b9150610d5c82610d1b565b602082019050919050565b60006020820190508181036000830152610d8081610d44565b9050919050565b60008190508160005260206000209050919050565b60006020601f8301049050919050565b600082821b905092915050565b600060088302610de97fffffffffffffffffffffffffffffffffffffffffffffffffffffffffffffffff82610dac565b610df38683610dac565b95508019841693508086168417925050509392505050565b6000819050919050565b6000610e30610e2b610e2684610846565b610e0b565b610846565b9050919050565b6000819050919050565b610e4a83610e15565b610e5e610e5682610e37565b848454610db9565b825550505050565b600090565b610e73610e66565b610e7e818484610e41565b505050565b5b81811015610ea257610e97600082610e6b565b600181019050610e84565b5050565b601f821115610ee757610eb881610d87565b610ec184610d9c565b81016020851015610ed0578190505b610ee4610edc85610d9c565b830182610e83565b50505b505050565b600082821c905092915050565b6000610f0a60001984600802610eec565b1980831691505092915050565b6000610f238383610ef9565b9150826002028217905092915050565b610f3c826107b6565b67ffffffffffffffff811115610f5557610f54610a54565b5b610f5f8254610cea565b610f6a828285610ea6565b600060209050601f831160018114610f9d5760008415610f8b578287015190505b610f958582610f17565b865550610ffd565b601f198416610fab86610d87565b60005b82811015610fd357848901518255600182019150602085019450602081019050610fae565b86831015610ff05784890151610fec601f891682610ef9565b8355505b6001600288020188555050505b505050505050565b6000815461101281610cea565b61101c81866109c1565b94506001821660008114611037576001811461104d57611080565b60ff198316865281151560200286019350611080565b61105685610d87565b60005b8381101561107857815481890152600182019150602081019050611059565b808801955050505b50505092915050565b600060408201905081810360008301526110a38185611005565b90506110b26020830184610a0b565b9392505050565b7f53747564656e7420616c72656164792072656769737465726564000000000000600082015250565b60006110ef601a836109c1565b91506110fa826110b9565b602082019050919050565b6000602082019050818103600083015261111e816110e2565b9050919050565b6000604082019050818103600083015261113f81856109d2565b905061114e6020830184610c53565b939250505056fea2646970667358221220902690e3b17300b44f4521f991e76cd3fa7a6108120eb4dc8b21e18bded8d5db64736f6c634300081c0033",
  "linkReferences": {},
  "deployedLinkReferences": {}
}